{
  "contractName": "EscrowFactory",
  "abi": [
    {
      "anonymous": false,
      "inputs": [
        {
          "indexed": false,
          "internalType": "address",
          "name": "buyer",
          "type": "address"
        },
        {
          "indexed": false,
          "internalType": "address",
          "name": "escrowAccount",
          "type": "address"
        },
        {
          "indexed": false,
          "internalType": "address",
          "name": "seller",
          "type": "address"
        }
      ],
      "name": "NewEscrow",
      "type": "event"
    },
    {
      "inputs": [
        {
          "internalType": "address payable",
          "name": "_escrowAccount",
          "type": "address"
        },
        {
          "internalType": "address payable",
          "name": "_seller",
          "type": "address"
        }
      ],
      "name": "createEscrow",
      "outputs": [],
      "stateMutability": "payable",
      "type": "function",
      "payable": true
    },
    {
      "inputs": [],
      "name": "getDeployedEscrowContracts",
      "outputs": [
        {
          "internalType": "address[]",
          "name": "",
          "type": "address[]"
        }
      ],
      "stateMutability": "view",
      "type": "function",
      "constant": true
    },
    {
      "inputs": [
        {
          "internalType": "uint256",
          "name": "index",
          "type": "uint256"
        }
      ],
      "name": "getDeployedEscrowContract",
      "outputs": [
        {
          "internalType": "address",
          "name": "",
          "type": "address"
        }
      ],
      "stateMutability": "view",
      "type": "function",
      "constant": true
    }
  ],
  "bytecode": "0x608060405234801561001057600080fd5b50610d3d806100206000396000f3fe6080604052600436106100345760003560e01c8063834cc6fc14610039578063b96bf0b914610055578063f891afa614610092575b600080fd5b610053600480360381019061004e919061038a565b6100bd565b005b34801561006157600080fd5b5061007c60048036038101906100779190610400565b610245565b604051610089919061044e565b60405180910390f35b34801561009e57600080fd5b506100a761028c565b6040516100b49190610527565b60405180910390f35b8173ffffffffffffffffffffffffffffffffffffffff163373ffffffffffffffffffffffffffffffffffffffff161415801561012557508073ffffffffffffffffffffffffffffffffffffffff168273ffffffffffffffffffffffffffffffffffffffff1614155b610164576040517f08c379a000000000000000000000000000000000000000000000000000000000815260040161015b906105cc565b60405180910390fd5b6000343384846040516101769061031a565b610182939291906105fb565b6040518091039082f090508015801561019f573d6000803e3d6000fd5b5090506000819080600181540180825580915050600190039060005260206000200160009091909190916101000a81548173ffffffffffffffffffffffffffffffffffffffff021916908373ffffffffffffffffffffffffffffffffffffffff1602179055507f66f59276039e08c0321252d93ec79f5934a55061e466f3a7f6b74a82febad62b33848460405161023893929190610691565b60405180910390a1505050565b600080828154811061025a576102596106c8565b5b9060005260206000200160009054906101000a900473ffffffffffffffffffffffffffffffffffffffff169050919050565b6060600080548060200260200160405190810160405280929190818152602001828054801561031057602002820191906000526020600020905b8160009054906101000a900473ffffffffffffffffffffffffffffffffffffffff1673ffffffffffffffffffffffffffffffffffffffff16815260200190600101908083116102c6575b5050505050905090565b610610806106f883390190565b600080fd5b600073ffffffffffffffffffffffffffffffffffffffff82169050919050565b60006103578261032c565b9050919050565b6103678161034c565b811461037257600080fd5b50565b6000813590506103848161035e565b92915050565b600080604083850312156103a1576103a0610327565b5b60006103af85828601610375565b92505060206103c085828601610375565b9150509250929050565b6000819050919050565b6103dd816103ca565b81146103e857600080fd5b50565b6000813590506103fa816103d4565b92915050565b60006020828403121561041657610415610327565b5b6000610424848285016103eb565b91505092915050565b60006104388261032c565b9050919050565b6104488161042d565b82525050565b6000602082019050610463600083018461043f565b92915050565b600081519050919050565b600082825260208201905092915050565b6000819050602082019050919050565b61049e8161042d565b82525050565b60006104b08383610495565b60208301905092915050565b6000602082019050919050565b60006104d482610469565b6104de8185610474565b93506104e983610485565b8060005b8381101561051a57815161050188826104a4565b975061050c836104bc565b9250506001810190506104ed565b5085935050505092915050565b6000602082019050818103600083015261054181846104c9565b905092915050565b600082825260208201905092915050565b7f4e65697468657220746865206275796572206e6f722073656c6c65722063616e60008201527f206d616e6167652074686520657363726f77206163636f756e742e0000000000602082015250565b60006105b6603b83610549565b91506105c18261055a565b604082019050919050565b600060208201905081810360008301526105e5816105a9565b9050919050565b6105f58161034c565b82525050565b600060608201905061061060008301866105ec565b61061d60208301856105ec565b61062a60408301846105ec565b949350505050565b6000819050919050565b600061065761065261064d8461032c565b610632565b61032c565b9050919050565b60006106698261063c565b9050919050565b600061067b8261065e565b9050919050565b61068b81610670565b82525050565b60006060820190506106a6600083018661043f565b6106b36020830185610682565b6106c06040830184610682565b949350505050565b7f4e487b7100000000000000000000000000000000000000000000000000000000600052603260045260246000fdfe608060405260405161061038038061061083398181016040528101906100259190610152565b826000806101000a81548173ffffffffffffffffffffffffffffffffffffffff021916908373ffffffffffffffffffffffffffffffffffffffff16021790555081600160006101000a81548173ffffffffffffffffffffffffffffffffffffffff021916908373ffffffffffffffffffffffffffffffffffffffff16021790555080600260006101000a81548173ffffffffffffffffffffffffffffffffffffffff021916908373ffffffffffffffffffffffffffffffffffffffff1602179055505050506101a5565b600080fd5b600073ffffffffffffffffffffffffffffffffffffffff82169050919050565b600061011f826100f4565b9050919050565b61012f81610114565b811461013a57600080fd5b50565b60008151905061014c81610126565b92915050565b60008060006060848603121561016b5761016a6100ef565b5b60006101798682870161013d565b935050602061018a8682870161013d565b925050604061019b8682870161013d565b9150509250925092565b61045c806101b46000396000f3fe608060405234801561001057600080fd5b50600436106100365760003560e01c806349569b821461003b57806369d8957514610045575b600080fd5b61004361004f565b005b61004d6101a0565b005b600260009054906101000a900473ffffffffffffffffffffffffffffffffffffffff1673ffffffffffffffffffffffffffffffffffffffff163373ffffffffffffffffffffffffffffffffffffffff1614806100f85750600160009054906101000a900473ffffffffffffffffffffffffffffffffffffffff1673ffffffffffffffffffffffffffffffffffffffff163373ffffffffffffffffffffffffffffffffffffffff16145b610137576040517f08c379a000000000000000000000000000000000000000000000000000000000815260040161012e90610374565b60405180910390fd5b60008054906101000a900473ffffffffffffffffffffffffffffffffffffffff1673ffffffffffffffffffffffffffffffffffffffff166108fc479081150290604051600060405180830381858888f1935050505015801561019d573d6000803e3d6000fd5b50565b60008054906101000a900473ffffffffffffffffffffffffffffffffffffffff1673ffffffffffffffffffffffffffffffffffffffff163373ffffffffffffffffffffffffffffffffffffffff1614806102475750600160009054906101000a900473ffffffffffffffffffffffffffffffffffffffff1673ffffffffffffffffffffffffffffffffffffffff163373ffffffffffffffffffffffffffffffffffffffff16145b610286576040517f08c379a000000000000000000000000000000000000000000000000000000000815260040161027d90610406565b60405180910390fd5b600260009054906101000a900473ffffffffffffffffffffffffffffffffffffffff1673ffffffffffffffffffffffffffffffffffffffff166108fc479081150290604051600060405180830381858888f193505050501580156102ee573d6000803e3d6000fd5b50565b600082825260208201905092915050565b7f4f6e6c792073656c6c6572206f7220657363726f77206163636f756e7420636160008201527f6e20726566756e642066756e6473000000000000000000000000000000000000602082015250565b600061035e602e836102f1565b915061036982610302565b604082019050919050565b6000602082019050818103600083015261038d81610351565b9050919050565b7f4f6e6c79206275796572206f7220657363726f77206163636f756e742063616e60008201527f2072656c656173652066756e64732e0000000000000000000000000000000000602082015250565b60006103f0602f836102f1565b91506103fb82610394565b604082019050919050565b6000602082019050818103600083015261041f816103e3565b905091905056fea2646970667358221220912f65ed9e311d05216c3f966a005e931b2ccb455d456a07a1fe9aa83fe5079564736f6c63430008090033a264697066735822122063c944000f5843b16e196cc5687a15079f521709d936443cf0baecd2db8850fd64736f6c63430008090033",
  "immutableReferences": {},
  "source": "// SPDX-License-Identifier: GPL-3.0\r\n\r\npragma solidity >=0.7.0 <0.9.0;\r\n\r\nimport \"./Escrow.sol\";\r\n\r\n/// @title creates new escrow contracts\r\n/// @author mattauer@umich.edu\r\ncontract EscrowFactory {\r\n\r\n    address[] private deployedEscrowContracts;\r\n    event NewEscrow(address buyer, address escrowAccount, address seller);\r\n\r\n    /**\r\n    * @notice creates a new escrow contract and adds it to a list\r\n    * @param _escrowAccount the escrow account to manage the funds\r\n    * @param _seller the account which receives the funds\r\n    */\r\n    function createEscrow(address payable _escrowAccount, address payable _seller) external payable {\r\n        require(\r\n            msg.sender != _escrowAccount && _escrowAccount != _seller,\r\n            \"Neither the buyer nor seller can manage the escrow account.\"\r\n        );\r\n        // Forward the sent Ether to the Escrow contract\r\n        address newEscrow = address((new Escrow){value: msg.value}(payable(msg.sender), _escrowAccount, _seller));\r\n        deployedEscrowContracts.push(newEscrow);\r\n        emit NewEscrow(msg.sender, _escrowAccount, _seller);\r\n    }\r\n\r\n    /**\r\n    * @notice returns all of the deployed escrow contracts\r\n    * @return a list of deployed escrow contracts\r\n    */\r\n    function getDeployedEscrowContracts() external view returns (address[] memory) {\r\n        return deployedEscrowContracts;\r\n    }\r\n\r\n    /**\r\n    * @notice return the escrow contract at the given index\r\n    * @param index index of contract to return\r\n    * @return returns address of contract given\r\n    */\r\n    function getDeployedEscrowContract(uint index) external view returns (address) {\r\n        return deployedEscrowContracts[index];\r\n    }\r\n}",
  "sourcePath": "/mnt/c/Users/mdaue/src/blockchain/Escrow/contracts/EscrowFactory.sol",
  "compiler": {
    "name": "solc",
    "version": "0.8.9+commit.e5eed63a.Emscripten.clang"
  },
  "schemaVersion": "3.4.3",
  "updatedAt": "2021-10-04T02:47:47.560Z",
  "networkType": "ethereum",
  "devdoc": {
    "author": "mattauer@umich.edu",
    "kind": "dev",
    "methods": {
      "createEscrow(address,address)": {
        "params": {
          "_escrowAccount": "the escrow account to manage the funds",
          "_seller": "the account which receives the funds"
        }
      },
      "getDeployedEscrowContract(uint256)": {
        "params": {
          "index": "index of contract to return"
        },
        "returns": {
          "_0": "returns address of contract given"
        }
      },
      "getDeployedEscrowContracts()": {
        "returns": {
          "_0": "a list of deployed escrow contracts"
        }
      }
    },
    "title": "creates new escrow contracts",
    "version": 1
  },
  "userdoc": {
    "kind": "user",
    "methods": {
      "createEscrow(address,address)": {
        "notice": "creates a new escrow contract and adds it to a list"
      },
      "getDeployedEscrowContract(uint256)": {
        "notice": "return the escrow contract at the given index"
      },
      "getDeployedEscrowContracts()": {
        "notice": "returns all of the deployed escrow contracts"
      }
    },
    "version": 1
  }
}