{
  "contractName": "Escrow",
  "abi": [
    {
      "inputs": [
        {
          "internalType": "address payable",
          "name": "_buyer",
          "type": "address"
        },
        {
          "internalType": "address payable",
          "name": "_escrowAccount",
          "type": "address"
        },
        {
          "internalType": "address payable",
          "name": "_seller",
          "type": "address"
        }
      ],
      "stateMutability": "payable",
      "type": "constructor"
    },
    {
      "inputs": [],
      "name": "releaseFunds",
      "outputs": [],
      "stateMutability": "nonpayable",
      "type": "function"
    },
    {
      "inputs": [],
      "name": "refundFunds",
      "outputs": [],
      "stateMutability": "nonpayable",
      "type": "function"
    }
  ],
  "bytecode": "0x608060405260405161061038038061061083398181016040528101906100259190610104565b826000806101000a81548173ffffffffffffffffffffffffffffffffffffffff021916908373ffffffffffffffffffffffffffffffffffffffff16021790555081600160006101000a81548173ffffffffffffffffffffffffffffffffffffffff021916908373ffffffffffffffffffffffffffffffffffffffff16021790555080600260006101000a81548173ffffffffffffffffffffffffffffffffffffffff021916908373ffffffffffffffffffffffffffffffffffffffff1602179055505050506101a5565b6000815190506100fe8161018e565b92915050565b60008060006060848603121561011d5761011c610189565b5b600061012b868287016100ef565b935050602061013c868287016100ef565b925050604061014d868287016100ef565b9150509250925092565b600061016282610169565b9050919050565b600073ffffffffffffffffffffffffffffffffffffffff82169050919050565b600080fd5b61019781610157565b81146101a257600080fd5b50565b61045c806101b46000396000f3fe608060405234801561001057600080fd5b50600436106100365760003560e01c806349569b821461003b57806369d8957514610045575b600080fd5b61004361004f565b005b61004d6101a0565b005b600260009054906101000a900473ffffffffffffffffffffffffffffffffffffffff1673ffffffffffffffffffffffffffffffffffffffff163373ffffffffffffffffffffffffffffffffffffffff1614806100f85750600160009054906101000a900473ffffffffffffffffffffffffffffffffffffffff1673ffffffffffffffffffffffffffffffffffffffff163373ffffffffffffffffffffffffffffffffffffffff16145b610137576040517f08c379a000000000000000000000000000000000000000000000000000000000815260040161012e90610337565b60405180910390fd5b60008054906101000a900473ffffffffffffffffffffffffffffffffffffffff1673ffffffffffffffffffffffffffffffffffffffff166108fc479081150290604051600060405180830381858888f1935050505015801561019d573d6000803e3d6000fd5b50565b60008054906101000a900473ffffffffffffffffffffffffffffffffffffffff1673ffffffffffffffffffffffffffffffffffffffff163373ffffffffffffffffffffffffffffffffffffffff1614806102475750600160009054906101000a900473ffffffffffffffffffffffffffffffffffffffff1673ffffffffffffffffffffffffffffffffffffffff163373ffffffffffffffffffffffffffffffffffffffff16145b610286576040517f08c379a000000000000000000000000000000000000000000000000000000000815260040161027d90610357565b60405180910390fd5b600260009054906101000a900473ffffffffffffffffffffffffffffffffffffffff1673ffffffffffffffffffffffffffffffffffffffff166108fc479081150290604051600060405180830381858888f193505050501580156102ee573d6000803e3d6000fd5b50565b60006102fe603283610377565b915061030982610388565b604082019050919050565b6000610321603383610377565b915061032c826103d7565b604082019050919050565b60006020820190508181036000830152610350816102f1565b9050919050565b6000602082019050818103600083015261037081610314565b9050919050565b600082825260208201905092915050565b7f4f6e6c79207468652073656c6c6572206f7220657363726f77206163636f756e60008201527f742063616e20726566756e642066756e64730000000000000000000000000000602082015250565b7f4f6e6c7920746865206275796572206f7220657363726f77206163636f756e7460008201527f2063616e2072656c656173652066756e64732e0000000000000000000000000060208201525056fea26469706673582212202a11de033176d529793245fc055d9a0f1ca6b9a830250067ab9ed1f9c2c4e2ce64736f6c63430008070033",
  "immutableReferences": {},
  "source": "// SPDX-License-Identifier: GPL-3.0\r\n\r\npragma solidity >=0.7.0 <0.9.0;\r\n\r\n/// @title handles escrow funds\r\n/// @author mattauer@umich.edu\r\ncontract Escrow {\r\n\r\n    address payable private buyer;\r\n    address payable private escrowAccount;\r\n    address payable private seller;\r\n\r\n    /**\r\n    * @notice constructs and escrow contract\r\n    * @param _buyer the account which releases the funds\r\n    * @param _escrowAccount the escrow account to manage the funds\r\n    * @param _seller the account which receives the funds\r\n    */\r\n    constructor(address payable _buyer, address payable _escrowAccount, address payable _seller) payable {\r\n        buyer = _buyer;\r\n        escrowAccount = _escrowAccount;\r\n        seller = _seller;\r\n    }\r\n\r\n    /**\r\n    * @notice releases the funds to the seller\r\n    */\r\n    function releaseFunds() external {\r\n        require(msg.sender == buyer || msg.sender == escrowAccount, \"Only the buyer or escrow account can release funds.\");\r\n        seller.transfer(address(this).balance);\r\n    }\r\n\r\n    /**\r\n    * @notice refunds the funds to the seller\r\n    */\r\n    function refundFunds() external {\r\n        require(msg.sender == seller || msg.sender == escrowAccount, \"Only the seller or escrow account can refund funds\");\r\n        buyer.transfer(address(this).balance);\r\n    }\r\n\r\n}",
  "sourcePath": "/mnt/c/Users/mdaue/src/blockchain/Escrow/contracts/Escrow.sol",
  "compiler": {
    "name": "solc",
    "version": "0.8.7+commit.e28d00a7.Emscripten.clang"
  },
  "schemaVersion": "3.4.3",
  "updatedAt": "2021-09-24T16:55:33.677Z",
  "devdoc": {
    "author": "mattauer@umich.edu",
    "kind": "dev",
    "methods": {
      "constructor": {
        "params": {
          "_buyer": "the account which releases the funds",
          "_escrowAccount": "the escrow account to manage the funds",
          "_seller": "the account which receives the funds"
        }
      }
    },
    "title": "handles escrow funds",
    "version": 1
  },
  "userdoc": {
    "kind": "user",
    "methods": {
      "constructor": {
        "notice": "constructs and escrow contract"
      },
      "refundFunds()": {
        "notice": "refunds the funds to the seller"
      },
      "releaseFunds()": {
        "notice": "releases the funds to the seller"
      }
    },
    "version": 1
  }
}